:1000000033C0000041C000003FC000003DC0000000
:100010003BC0000039C0000037C0000035C0000000
:1000200033C0000031C000002FC000002DC0000010
:100030002BC0000029C0000027C0000025C0000020
:1000400032C0000021C000001FC000001DC0000021
:100050001BC0000019C0000017C0000015C0000040
:1000600013C0000011C0000011241FBECFEFD8E064
:10007000DEBFCDBF21E0A0E0B1E001C01D92A930FC
:10008000B207E1F705D094C0BBCF08950895089555
:1000900054D0FDDFFADFC0E0D0E0F8DF2097E9F3CD
:1000A0000E940000FACF1F920F920FB60F921124F8
:1000B0002F933F938F939F93AF93BF9380910101B1
:1000C00090910201A0910301B091040130910001CF
:1000D00023E0230F2D3758F50196A11DB11D209364
:1000E00000018093010190930201A0930301B0935A
:1000F00004018091050190910601A0910701B09142
:1001000008010196A11DB11D809305019093060180
:10011000A0930701B0930801BF91AF919F918F9178
:100120003F912F910F900FBE0F901F90189526E8CA
:10013000230F0296A11DB11DD2CF789484B58260A1
:1001400084BD84B5816084BD85B5826085BD85B57B
:10015000816085BDEEE6F0E0808181608083E1E82A
:10016000F0E0108280818260808380818160808362
:10017000E0E8F0E0808181608083E1EBF0E0808165
:1001800084608083E0EBF0E0808181608083EAE737
:10019000F0E08081846080838081826080838081C0
:1001A000816080838081806880831092C10008957F
:0401B000F894FFCFF1
:00000001FF
